{
  "_format": "hh-sol-artifact-1",
  "contractName": "NFT",
  "sourceName": "contracts/NFT.sol",
  "abi": [
    {
      "inputs": [
        {
          "internalType": "address",
          "name": "_marketplace",
          "type": "address"
        }
      ],
      "stateMutability": "nonpayable",
      "type": "constructor"
    },
    {
      "inputs": [
        {
          "internalType": "address",
          "name": "sender",
          "type": "address"
        },
        {
          "internalType": "uint256",
          "name": "i",
          "type": "uint256"
        }
      ],
      "name": "NotOwner",
      "type": "error"
    },
    {
      "anonymous": false,
      "inputs": [
        {
          "indexed": true,
          "internalType": "address",
          "name": "owner",
          "type": "address"
        },
        {
          "indexed": true,
          "internalType": "address",
          "name": "approved",
          "type": "address"
        },
        {
          "indexed": true,
          "internalType": "uint256",
          "name": "tokenId",
          "type": "uint256"
        }
      ],
      "name": "Approval",
      "type": "event"
    },
    {
      "anonymous": false,
      "inputs": [
        {
          "indexed": true,
          "internalType": "address",
          "name": "owner",
          "type": "address"
        },
        {
          "indexed": true,
          "internalType": "address",
          "name": "operator",
          "type": "address"
        },
        {
          "indexed": false,
          "internalType": "bool",
          "name": "approved",
          "type": "bool"
        }
      ],
      "name": "ApprovalForAll",
      "type": "event"
    },
    {
      "anonymous": false,
      "inputs": [
        {
          "indexed": true,
          "internalType": "address",
          "name": "from",
          "type": "address"
        },
        {
          "indexed": true,
          "internalType": "address",
          "name": "to",
          "type": "address"
        },
        {
          "indexed": true,
          "internalType": "uint256",
          "name": "tokenId",
          "type": "uint256"
        }
      ],
      "name": "Transfer",
      "type": "event"
    },
    {
      "inputs": [
        {
          "internalType": "address",
          "name": "to",
          "type": "address"
        },
        {
          "internalType": "uint256",
          "name": "tokenId",
          "type": "uint256"
        }
      ],
      "name": "approve",
      "outputs": [],
      "stateMutability": "nonpayable",
      "type": "function"
    },
    {
      "inputs": [
        {
          "internalType": "address",
          "name": "owner",
          "type": "address"
        }
      ],
      "name": "balanceOf",
      "outputs": [
        {
          "internalType": "uint256",
          "name": "",
          "type": "uint256"
        }
      ],
      "stateMutability": "view",
      "type": "function"
    },
    {
      "inputs": [
        {
          "internalType": "uint256",
          "name": "tokenId",
          "type": "uint256"
        }
      ],
      "name": "burn",
      "outputs": [],
      "stateMutability": "nonpayable",
      "type": "function"
    },
    {
      "inputs": [
        {
          "internalType": "string",
          "name": "tokenURI",
          "type": "string"
        }
      ],
      "name": "createNFT",
      "outputs": [
        {
          "internalType": "uint256",
          "name": "",
          "type": "uint256"
        }
      ],
      "stateMutability": "nonpayable",
      "type": "function"
    },
    {
      "inputs": [
        {
          "internalType": "uint256",
          "name": "tokenId",
          "type": "uint256"
        }
      ],
      "name": "getApproved",
      "outputs": [
        {
          "internalType": "address",
          "name": "",
          "type": "address"
        }
      ],
      "stateMutability": "view",
      "type": "function"
    },
    {
      "inputs": [
        {
          "internalType": "address",
          "name": "owner",
          "type": "address"
        },
        {
          "internalType": "address",
          "name": "operator",
          "type": "address"
        }
      ],
      "name": "isApprovedForAll",
      "outputs": [
        {
          "internalType": "bool",
          "name": "",
          "type": "bool"
        }
      ],
      "stateMutability": "view",
      "type": "function"
    },
    {
      "inputs": [],
      "name": "name",
      "outputs": [
        {
          "internalType": "string",
          "name": "",
          "type": "string"
        }
      ],
      "stateMutability": "view",
      "type": "function"
    },
    {
      "inputs": [
        {
          "internalType": "uint256",
          "name": "tokenId",
          "type": "uint256"
        }
      ],
      "name": "ownerOf",
      "outputs": [
        {
          "internalType": "address",
          "name": "",
          "type": "address"
        }
      ],
      "stateMutability": "view",
      "type": "function"
    },
    {
      "inputs": [
        {
          "internalType": "address",
          "name": "from",
          "type": "address"
        },
        {
          "internalType": "address",
          "name": "to",
          "type": "address"
        },
        {
          "internalType": "uint256",
          "name": "tokenId",
          "type": "uint256"
        }
      ],
      "name": "safeTransferFrom",
      "outputs": [],
      "stateMutability": "nonpayable",
      "type": "function"
    },
    {
      "inputs": [
        {
          "internalType": "address",
          "name": "from",
          "type": "address"
        },
        {
          "internalType": "address",
          "name": "to",
          "type": "address"
        },
        {
          "internalType": "uint256",
          "name": "tokenId",
          "type": "uint256"
        },
        {
          "internalType": "bytes",
          "name": "_data",
          "type": "bytes"
        }
      ],
      "name": "safeTransferFrom",
      "outputs": [],
      "stateMutability": "nonpayable",
      "type": "function"
    },
    {
      "inputs": [
        {
          "internalType": "address",
          "name": "operator",
          "type": "address"
        },
        {
          "internalType": "bool",
          "name": "approved",
          "type": "bool"
        }
      ],
      "name": "setApprovalForAll",
      "outputs": [],
      "stateMutability": "nonpayable",
      "type": "function"
    },
    {
      "inputs": [
        {
          "internalType": "bytes4",
          "name": "interfaceId",
          "type": "bytes4"
        }
      ],
      "name": "supportsInterface",
      "outputs": [
        {
          "internalType": "bool",
          "name": "",
          "type": "bool"
        }
      ],
      "stateMutability": "view",
      "type": "function"
    },
    {
      "inputs": [],
      "name": "symbol",
      "outputs": [
        {
          "internalType": "string",
          "name": "",
          "type": "string"
        }
      ],
      "stateMutability": "view",
      "type": "function"
    },
    {
      "inputs": [
        {
          "internalType": "uint256",
          "name": "tokenId",
          "type": "uint256"
        }
      ],
      "name": "tokenURI",
      "outputs": [
        {
          "internalType": "string",
          "name": "",
          "type": "string"
        }
      ],
      "stateMutability": "view",
      "type": "function"
    },
    {
      "inputs": [
        {
          "internalType": "address",
          "name": "from",
          "type": "address"
        },
        {
          "internalType": "address",
          "name": "to",
          "type": "address"
        },
        {
          "internalType": "uint256",
          "name": "tokenId",
          "type": "uint256"
        }
      ],
      "name": "transferFrom",
      "outputs": [],
      "stateMutability": "nonpayable",
      "type": "function"
    }
  ],
  "bytecode": "0x60a06040523480156200001157600080fd5b5060405162001a9f38038062001a9f833981016040819052620000349162000157565b604080518082018252600a8152694170652046616d696c7960b01b6020808301918252835180850190945260048452634150464160e01b9084015281519192916200008291600091620000b1565b50805162000098906001906020840190620000b1565b50505060601b6001600160601b031916608052620001c6565b828054620000bf9062000189565b90600052602060002090601f016020900481019282620000e357600085556200012e565b82601f10620000fe57805160ff19168380011785556200012e565b828001600101855582156200012e579182015b828111156200012e57825182559160200191906001019062000111565b506200013c92915062000140565b5090565b5b808211156200013c576000815560010162000141565b6000602082840312156200016a57600080fd5b81516001600160a01b03811681146200018257600080fd5b9392505050565b600181811c908216806200019e57607f821691505b60208210811415620001c057634e487b7160e01b600052602260045260246000fd5b50919050565b60805160601c6118ba620001e5600039600061088401526118ba6000f3fe608060405234801561001057600080fd5b50600436106100f55760003560e01c80636352211e11610097578063b88d4fde11610066578063b88d4fde146101ff578063c87b56dd14610212578063da2ed03e14610225578063e985e9c51461023857600080fd5b80636352211e146101b057806370a08231146101c357806395d89b41146101e4578063a22cb465146101ec57600080fd5b8063095ea7b3116100d3578063095ea7b31461016257806323b872dd1461017757806342842e0e1461018a57806342966c681461019d57600080fd5b806301ffc9a7146100fa57806306fdde0314610122578063081812fc14610137575b600080fd5b61010d610108366004611553565b610274565b60405190151581526020015b60405180910390f35b61012a6102c6565b6040516101199190611687565b61014a6101453660046115d6565b610358565b6040516001600160a01b039091168152602001610119565b610175610170366004611529565b6103e5565b005b610175610185366004611435565b6104fb565b610175610198366004611435565b61052d565b6101756101ab3660046115d6565b610548565b61014a6101be3660046115d6565b610583565b6101d66101d13660046113e7565b6105fa565b604051908152602001610119565b61012a610681565b6101756101fa3660046114ed565b610690565b61017561020d366004611471565b61069f565b61012a6102203660046115d6565b6106d7565b6101d661023336600461158d565b61084e565b61010d610246366004611402565b6001600160a01b03918216600090815260056020908152604080832093909416825291909152205460ff1690565b60006001600160e01b031982166380ac58cd60e01b14806102a557506001600160e01b03198216635b5e139f60e01b145b806102c057506301ffc9a760e01b6001600160e01b03198316145b92915050565b6060600080546102d5906117ac565b80601f0160208091040260200160405190810160405280929190818152602001828054610301906117ac565b801561034e5780601f106103235761010080835404028352916020019161034e565b820191906000526020600020905b81548152906001019060200180831161033157829003601f168201915b5050505050905090565b6000610363826108aa565b6103c95760405162461bcd60e51b815260206004820152602c60248201527f4552433732313a20617070726f76656420717565727920666f72206e6f6e657860448201526b34b9ba32b73a103a37b5b2b760a11b60648201526084015b60405180910390fd5b506000908152600460205260409020546001600160a01b031690565b60006103f082610583565b9050806001600160a01b0316836001600160a01b0316141561045e5760405162461bcd60e51b815260206004820152602160248201527f4552433732313a20617070726f76616c20746f2063757272656e74206f776e656044820152603960f91b60648201526084016103c0565b336001600160a01b038216148061047a575061047a8133610246565b6104ec5760405162461bcd60e51b815260206004820152603860248201527f4552433732313a20617070726f76652063616c6c6572206973206e6f74206f7760448201527f6e6572206e6f7220617070726f76656420666f7220616c6c000000000000000060648201526084016103c0565b6104f683836108c7565b505050565b610506335b82610935565b6105225760405162461bcd60e51b81526004016103c0906116ec565b6104f6838383610a1b565b6104f68383836040518060200160405280600081525061069f565b61055133610500565b61057757604051636f7f64bf60e01b8152336004820152602481018290526044016103c0565b61058081610bb7565b50565b6000818152600260205260408120546001600160a01b0316806102c05760405162461bcd60e51b815260206004820152602960248201527f4552433732313a206f776e657220717565727920666f72206e6f6e657869737460448201526832b73a103a37b5b2b760b91b60648201526084016103c0565b60006001600160a01b0382166106655760405162461bcd60e51b815260206004820152602a60248201527f4552433732313a2062616c616e636520717565727920666f7220746865207a65604482015269726f206164647265737360b01b60648201526084016103c0565b506001600160a01b031660009081526003602052604090205490565b6060600180546102d5906117ac565b61069b338383610bf7565b5050565b6106a93383610935565b6106c55760405162461bcd60e51b81526004016103c0906116ec565b6106d184848484610cc6565b50505050565b60606106e2826108aa565b6107485760405162461bcd60e51b815260206004820152603160248201527f45524337323155524953746f726167653a2055524920717565727920666f72206044820152703737b732bc34b9ba32b73a103a37b5b2b760791b60648201526084016103c0565b60008281526006602052604081208054610761906117ac565b80601f016020809104026020016040519081016040528092919081815260200182805461078d906117ac565b80156107da5780601f106107af576101008083540402835291602001916107da565b820191906000526020600020905b8154815290600101906020018083116107bd57829003601f168201915b5050505050905060006107f860408051602081019091526000815290565b905080516000141561080b575092915050565b81511561083d57808260405160200161082592919061161b565b60405160208183030381529060405292505050919050565b61084684610cf9565b949350505050565b600061085e600780546001019055565b600061086960075490565b90506108753382610dd1565b61087f8184610deb565b6102c07f00000000000000000000000000000000000000000000000000000000000000006001610690565b6000908152600260205260409020546001600160a01b0316151590565b600081815260046020526040902080546001600160a01b0319166001600160a01b03841690811790915581906108fc82610583565b6001600160a01b03167f8c5be1e5ebec7d5bd14f71427d1e84f3dd0314c0f7b2291e5b200ac8c7c3b92560405160405180910390a45050565b6000610940826108aa565b6109a15760405162461bcd60e51b815260206004820152602c60248201527f4552433732313a206f70657261746f7220717565727920666f72206e6f6e657860448201526b34b9ba32b73a103a37b5b2b760a11b60648201526084016103c0565b60006109ac83610583565b9050806001600160a01b0316846001600160a01b031614806109e75750836001600160a01b03166109dc84610358565b6001600160a01b0316145b8061084657506001600160a01b0380821660009081526005602090815260408083209388168352929052205460ff16610846565b826001600160a01b0316610a2e82610583565b6001600160a01b031614610a925760405162461bcd60e51b815260206004820152602560248201527f4552433732313a207472616e736665722066726f6d20696e636f72726563742060448201526437bbb732b960d91b60648201526084016103c0565b6001600160a01b038216610af45760405162461bcd60e51b8152602060048201526024808201527f4552433732313a207472616e7366657220746f20746865207a65726f206164646044820152637265737360e01b60648201526084016103c0565b610aff6000826108c7565b6001600160a01b0383166000908152600360205260408120805460019290610b28908490611769565b90915550506001600160a01b0382166000908152600360205260408120805460019290610b5690849061173d565b909155505060008181526002602052604080822080546001600160a01b0319166001600160a01b0386811691821790925591518493918716917fddf252ad1be2c89b69c2b068fc378daa952ba7f163c4a11628f55a4df523b3ef91a4505050565b610bc081610e76565b60008181526006602052604090208054610bd9906117ac565b15905061058057600081815260066020526040812061058091611282565b816001600160a01b0316836001600160a01b03161415610c595760405162461bcd60e51b815260206004820152601960248201527f4552433732313a20617070726f766520746f2063616c6c65720000000000000060448201526064016103c0565b6001600160a01b03838116600081815260056020908152604080832094871680845294825291829020805460ff191686151590811790915591519182527f17307eab39ab6107e8899845ad3d59bd9653f200f220920489ca2b5937696c31910160405180910390a3505050565b610cd1848484610a1b565b610cdd84848484610f11565b6106d15760405162461bcd60e51b81526004016103c09061169a565b6060610d04826108aa565b610d685760405162461bcd60e51b815260206004820152602f60248201527f4552433732314d657461646174613a2055524920717565727920666f72206e6f60448201526e3732bc34b9ba32b73a103a37b5b2b760891b60648201526084016103c0565b6000610d7f60408051602081019091526000815290565b90506000815111610d9f5760405180602001604052806000815250610dca565b80610da98461101e565b604051602001610dba92919061161b565b6040516020818303038152906040525b9392505050565b61069b82826040518060200160405280600081525061111c565b610df4826108aa565b610e575760405162461bcd60e51b815260206004820152602e60248201527f45524337323155524953746f726167653a2055524920736574206f66206e6f6e60448201526d32bc34b9ba32b73a103a37b5b2b760911b60648201526084016103c0565b600082815260066020908152604090912082516104f6928401906112bc565b6000610e8182610583565b9050610e8e6000836108c7565b6001600160a01b0381166000908152600360205260408120805460019290610eb7908490611769565b909155505060008281526002602052604080822080546001600160a01b0319169055518391906001600160a01b038416907fddf252ad1be2c89b69c2b068fc378daa952ba7f163c4a11628f55a4df523b3ef908390a45050565b60006001600160a01b0384163b1561101357604051630a85bd0160e11b81526001600160a01b0385169063150b7a0290610f5590339089908890889060040161164a565b602060405180830381600087803b158015610f6f57600080fd5b505af1925050508015610f9f575060408051601f3d908101601f19168201909252610f9c91810190611570565b60015b610ff9573d808015610fcd576040519150601f19603f3d011682016040523d82523d6000602084013e610fd2565b606091505b508051610ff15760405162461bcd60e51b81526004016103c09061169a565b805181602001fd5b6001600160e01b031916630a85bd0160e11b149050610846565b506001949350505050565b6060816110425750506040805180820190915260018152600360fc1b602082015290565b8160005b811561106c5780611056816117e7565b91506110659050600a83611755565b9150611046565b60008167ffffffffffffffff81111561108757611087611858565b6040519080825280601f01601f1916602001820160405280156110b1576020820181803683370190505b5090505b8415610846576110c6600183611769565b91506110d3600a86611802565b6110de90603061173d565b60f81b8183815181106110f3576110f3611842565b60200101906001600160f81b031916908160001a905350611115600a86611755565b94506110b5565b611126838361114f565b6111336000848484610f11565b6104f65760405162461bcd60e51b81526004016103c09061169a565b6001600160a01b0382166111a55760405162461bcd60e51b815260206004820181905260248201527f4552433732313a206d696e7420746f20746865207a65726f206164647265737360448201526064016103c0565b6111ae816108aa565b156111fb5760405162461bcd60e51b815260206004820152601c60248201527f4552433732313a20746f6b656e20616c7265616479206d696e7465640000000060448201526064016103c0565b6001600160a01b038216600090815260036020526040812080546001929061122490849061173d565b909155505060008181526002602052604080822080546001600160a01b0319166001600160a01b03861690811790915590518392907fddf252ad1be2c89b69c2b068fc378daa952ba7f163c4a11628f55a4df523b3ef908290a45050565b50805461128e906117ac565b6000825580601f1061129e575050565b601f0160209004906000526020600020908101906105809190611340565b8280546112c8906117ac565b90600052602060002090601f0160209004810192826112ea5760008555611330565b82601f1061130357805160ff1916838001178555611330565b82800160010185558215611330579182015b82811115611330578251825591602001919060010190611315565b5061133c929150611340565b5090565b5b8082111561133c5760008155600101611341565b600067ffffffffffffffff8084111561137057611370611858565b604051601f8501601f19908116603f0116810190828211818310171561139857611398611858565b816040528093508581528686860111156113b157600080fd5b858560208301376000602087830101525050509392505050565b80356001600160a01b03811681146113e257600080fd5b919050565b6000602082840312156113f957600080fd5b610dca826113cb565b6000806040838503121561141557600080fd5b61141e836113cb565b915061142c602084016113cb565b90509250929050565b60008060006060848603121561144a57600080fd5b611453846113cb565b9250611461602085016113cb565b9150604084013590509250925092565b6000806000806080858703121561148757600080fd5b611490856113cb565b935061149e602086016113cb565b925060408501359150606085013567ffffffffffffffff8111156114c157600080fd5b8501601f810187136114d257600080fd5b6114e187823560208401611355565b91505092959194509250565b6000806040838503121561150057600080fd5b611509836113cb565b91506020830135801515811461151e57600080fd5b809150509250929050565b6000806040838503121561153c57600080fd5b611545836113cb565b946020939093013593505050565b60006020828403121561156557600080fd5b8135610dca8161186e565b60006020828403121561158257600080fd5b8151610dca8161186e565b60006020828403121561159f57600080fd5b813567ffffffffffffffff8111156115b657600080fd5b8201601f810184136115c757600080fd5b61084684823560208401611355565b6000602082840312156115e857600080fd5b5035919050565b60008151808452611607816020860160208601611780565b601f01601f19169290920160200192915050565b6000835161162d818460208801611780565b835190830190611641818360208801611780565b01949350505050565b6001600160a01b038581168252841660208201526040810183905260806060820181905260009061167d908301846115ef565b9695505050505050565b602081526000610dca60208301846115ef565b60208082526032908201527f4552433732313a207472616e7366657220746f206e6f6e20455243373231526560408201527131b2b4bb32b91034b6b83632b6b2b73a32b960711b606082015260800190565b60208082526031908201527f4552433732313a207472616e736665722063616c6c6572206973206e6f74206f6040820152701ddb995c881b9bdc88185c1c1c9bdd9959607a1b606082015260800190565b6000821982111561175057611750611816565b500190565b6000826117645761176461182c565b500490565b60008282101561177b5761177b611816565b500390565b60005b8381101561179b578181015183820152602001611783565b838111156106d15750506000910152565b600181811c908216806117c057607f821691505b602082108114156117e157634e487b7160e01b600052602260045260246000fd5b50919050565b60006000198214156117fb576117fb611816565b5060010190565b6000826118115761181161182c565b500690565b634e487b7160e01b600052601160045260246000fd5b634e487b7160e01b600052601260045260246000fd5b634e487b7160e01b600052603260045260246000fd5b634e487b7160e01b600052604160045260246000fd5b6001600160e01b03198116811461058057600080fdfea264697066735822122081bead077a56f367a2d0cbf2b327bb679fe62cd8fa124529627dcc2bc29b3cf464736f6c63430008070033",
  "linkReferences": {},
  "deployedLinkReferences": {}
}