{
  "_format": "hh-sol-artifact-1",
  "contractName": "NftMarketPlace",
  "sourceName": "contracts/NftMarketPlace.sol",
  "abi": [
    {
      "inputs": [],
      "stateMutability": "nonpayable",
      "type": "constructor"
    },
    {
      "inputs": [
        {
          "internalType": "address",
          "name": "caller",
          "type": "address"
        },
        {
          "internalType": "uint256",
          "name": "tokenId",
          "type": "uint256"
        }
      ],
      "name": "NftMarketPlace__CallerIsOwnerOfToken",
      "type": "error"
    },
    {
      "inputs": [
        {
          "internalType": "uint256",
          "name": "value",
          "type": "uint256"
        }
      ],
      "name": "NftMarketPlace__DidNotPayLISTINGPRICE",
      "type": "error"
    },
    {
      "inputs": [
        {
          "internalType": "address",
          "name": "requester",
          "type": "address"
        }
      ],
      "name": "NftMarketPlace__NotOwnerOfContract",
      "type": "error"
    },
    {
      "inputs": [
        {
          "internalType": "address",
          "name": "sender",
          "type": "address"
        },
        {
          "internalType": "uint256",
          "name": "tokenId",
          "type": "uint256"
        }
      ],
      "name": "NftMarketPlace__NotOwnerOfToken",
      "type": "error"
    },
    {
      "inputs": [
        {
          "internalType": "uint256",
          "name": "tokenId",
          "type": "uint256"
        }
      ],
      "name": "NftMarketPlace__TokenAlreadyOnSale",
      "type": "error"
    },
    {
      "inputs": [
        {
          "internalType": "uint256",
          "name": "tokenId",
          "type": "uint256"
        }
      ],
      "name": "NftMarketPlace__TokenIdUnderOne",
      "type": "error"
    },
    {
      "inputs": [
        {
          "internalType": "uint256",
          "name": "tokenId",
          "type": "uint256"
        }
      ],
      "name": "NftMarketPlace__TokenNotOnSale",
      "type": "error"
    },
    {
      "inputs": [
        {
          "internalType": "uint256",
          "name": "valueSend",
          "type": "uint256"
        }
      ],
      "name": "NftMarketPlace__UnequalToSellPrice",
      "type": "error"
    },
    {
      "inputs": [
        {
          "internalType": "address",
          "name": "sender",
          "type": "address"
        },
        {
          "internalType": "uint256",
          "name": "valueSend",
          "type": "uint256"
        }
      ],
      "name": "NftMarketPlace__ValueUnderOrEqualToZero",
      "type": "error"
    },
    {
      "anonymous": false,
      "inputs": [
        {
          "indexed": true,
          "internalType": "address",
          "name": "sender",
          "type": "address"
        },
        {
          "indexed": false,
          "internalType": "uint256",
          "name": "value",
          "type": "uint256"
        },
        {
          "indexed": false,
          "internalType": "uint256",
          "name": "timestamp",
          "type": "uint256"
        }
      ],
      "name": "balanceDirectlyToContract",
      "type": "event"
    },
    {
      "anonymous": false,
      "inputs": [
        {
          "indexed": true,
          "internalType": "address",
          "name": "nftContractAddress",
          "type": "address"
        },
        {
          "indexed": false,
          "internalType": "uint256",
          "name": "tokenId",
          "type": "uint256"
        },
        {
          "indexed": false,
          "internalType": "uint256",
          "name": "price",
          "type": "uint256"
        },
        {
          "indexed": false,
          "internalType": "bool",
          "name": "onSale",
          "type": "bool"
        },
        {
          "indexed": false,
          "internalType": "address",
          "name": "owner",
          "type": "address"
        },
        {
          "indexed": true,
          "internalType": "address",
          "name": "seller",
          "type": "address"
        },
        {
          "indexed": false,
          "internalType": "address",
          "name": "minter",
          "type": "address"
        }
      ],
      "name": "marketItemBought",
      "type": "event"
    },
    {
      "anonymous": false,
      "inputs": [
        {
          "indexed": true,
          "internalType": "address",
          "name": "nftContractAddress",
          "type": "address"
        },
        {
          "indexed": true,
          "internalType": "uint256",
          "name": "tokenId",
          "type": "uint256"
        },
        {
          "indexed": false,
          "internalType": "uint256",
          "name": "price",
          "type": "uint256"
        },
        {
          "indexed": false,
          "internalType": "bool",
          "name": "onSale",
          "type": "bool"
        },
        {
          "indexed": true,
          "internalType": "address",
          "name": "owner",
          "type": "address"
        },
        {
          "indexed": false,
          "internalType": "address",
          "name": "seller",
          "type": "address"
        },
        {
          "indexed": false,
          "internalType": "address",
          "name": "minter",
          "type": "address"
        }
      ],
      "name": "marketItemCreated",
      "type": "event"
    },
    {
      "anonymous": false,
      "inputs": [
        {
          "indexed": true,
          "internalType": "address",
          "name": "nftContractAddress",
          "type": "address"
        },
        {
          "indexed": false,
          "internalType": "uint256",
          "name": "tokenId",
          "type": "uint256"
        },
        {
          "indexed": false,
          "internalType": "uint256",
          "name": "price",
          "type": "uint256"
        },
        {
          "indexed": false,
          "internalType": "bool",
          "name": "onSale",
          "type": "bool"
        },
        {
          "indexed": false,
          "internalType": "address",
          "name": "owner",
          "type": "address"
        },
        {
          "indexed": true,
          "internalType": "address",
          "name": "seller",
          "type": "address"
        },
        {
          "indexed": false,
          "internalType": "address",
          "name": "minter",
          "type": "address"
        }
      ],
      "name": "marketItemOnSale",
      "type": "event"
    },
    {
      "inputs": [],
      "name": "LISTINGPRICE",
      "outputs": [
        {
          "internalType": "uint256",
          "name": "",
          "type": "uint256"
        }
      ],
      "stateMutability": "view",
      "type": "function"
    },
    {
      "inputs": [
        {
          "internalType": "uint256",
          "name": "_tokenId",
          "type": "uint256"
        },
        {
          "internalType": "address",
          "name": "_nftContractAddress",
          "type": "address"
        }
      ],
      "name": "buyMarketToken",
      "outputs": [],
      "stateMutability": "payable",
      "type": "function"
    },
    {
      "inputs": [],
      "name": "fetchAllMyTokens",
      "outputs": [
        {
          "components": [
            {
              "internalType": "address",
              "name": "nftContractAddress",
              "type": "address"
            },
            {
              "internalType": "uint256",
              "name": "tokenId",
              "type": "uint256"
            },
            {
              "internalType": "uint256",
              "name": "price",
              "type": "uint256"
            },
            {
              "internalType": "bool",
              "name": "onSale",
              "type": "bool"
            },
            {
              "internalType": "address payable",
              "name": "owner",
              "type": "address"
            },
            {
              "internalType": "address payable",
              "name": "seller",
              "type": "address"
            },
            {
              "internalType": "address",
              "name": "minter",
              "type": "address"
            }
          ],
          "internalType": "struct NftMarketPlace.MarketToken[]",
          "name": "",
          "type": "tuple[]"
        }
      ],
      "stateMutability": "view",
      "type": "function"
    },
    {
      "inputs": [],
      "name": "fetchAllTokens",
      "outputs": [
        {
          "components": [
            {
              "internalType": "address",
              "name": "nftContractAddress",
              "type": "address"
            },
            {
              "internalType": "uint256",
              "name": "tokenId",
              "type": "uint256"
            },
            {
              "internalType": "uint256",
              "name": "price",
              "type": "uint256"
            },
            {
              "internalType": "bool",
              "name": "onSale",
              "type": "bool"
            },
            {
              "internalType": "address payable",
              "name": "owner",
              "type": "address"
            },
            {
              "internalType": "address payable",
              "name": "seller",
              "type": "address"
            },
            {
              "internalType": "address",
              "name": "minter",
              "type": "address"
            }
          ],
          "internalType": "struct NftMarketPlace.MarketToken[]",
          "name": "",
          "type": "tuple[]"
        }
      ],
      "stateMutability": "view",
      "type": "function"
    },
    {
      "inputs": [],
      "name": "fetchAllTokensOnSale",
      "outputs": [
        {
          "components": [
            {
              "internalType": "address",
              "name": "nftContractAddress",
              "type": "address"
            },
            {
              "internalType": "uint256",
              "name": "tokenId",
              "type": "uint256"
            },
            {
              "internalType": "uint256",
              "name": "price",
              "type": "uint256"
            },
            {
              "internalType": "bool",
              "name": "onSale",
              "type": "bool"
            },
            {
              "internalType": "address payable",
              "name": "owner",
              "type": "address"
            },
            {
              "internalType": "address payable",
              "name": "seller",
              "type": "address"
            },
            {
              "internalType": "address",
              "name": "minter",
              "type": "address"
            }
          ],
          "internalType": "struct NftMarketPlace.MarketToken[]",
          "name": "",
          "type": "tuple[]"
        }
      ],
      "stateMutability": "view",
      "type": "function"
    },
    {
      "inputs": [],
      "name": "fetchTokensMintedByCaller",
      "outputs": [
        {
          "components": [
            {
              "internalType": "address",
              "name": "nftContractAddress",
              "type": "address"
            },
            {
              "internalType": "uint256",
              "name": "tokenId",
              "type": "uint256"
            },
            {
              "internalType": "uint256",
              "name": "price",
              "type": "uint256"
            },
            {
              "internalType": "bool",
              "name": "onSale",
              "type": "bool"
            },
            {
              "internalType": "address payable",
              "name": "owner",
              "type": "address"
            },
            {
              "internalType": "address payable",
              "name": "seller",
              "type": "address"
            },
            {
              "internalType": "address",
              "name": "minter",
              "type": "address"
            }
          ],
          "internalType": "struct NftMarketPlace.MarketToken[]",
          "name": "",
          "type": "tuple[]"
        }
      ],
      "stateMutability": "view",
      "type": "function"
    },
    {
      "inputs": [],
      "name": "getListingPrice",
      "outputs": [
        {
          "internalType": "uint256",
          "name": "",
          "type": "uint256"
        }
      ],
      "stateMutability": "pure",
      "type": "function"
    },
    {
      "inputs": [
        {
          "internalType": "uint256",
          "name": "",
          "type": "uint256"
        }
      ],
      "name": "idToMarketToken",
      "outputs": [
        {
          "internalType": "address",
          "name": "nftContractAddress",
          "type": "address"
        },
        {
          "internalType": "uint256",
          "name": "tokenId",
          "type": "uint256"
        },
        {
          "internalType": "uint256",
          "name": "price",
          "type": "uint256"
        },
        {
          "internalType": "bool",
          "name": "onSale",
          "type": "bool"
        },
        {
          "internalType": "address payable",
          "name": "owner",
          "type": "address"
        },
        {
          "internalType": "address payable",
          "name": "seller",
          "type": "address"
        },
        {
          "internalType": "address",
          "name": "minter",
          "type": "address"
        }
      ],
      "stateMutability": "view",
      "type": "function"
    },
    {
      "inputs": [
        {
          "internalType": "address",
          "name": "_nftContractAddress",
          "type": "address"
        }
      ],
      "name": "mintMarketToken",
      "outputs": [],
      "stateMutability": "payable",
      "type": "function"
    },
    {
      "inputs": [
        {
          "internalType": "uint256",
          "name": "_tokenId",
          "type": "uint256"
        },
        {
          "internalType": "uint256",
          "name": "sellPrice",
          "type": "uint256"
        },
        {
          "internalType": "address",
          "name": "_nftContractAddress",
          "type": "address"
        }
      ],
      "name": "saleMarketToken",
      "outputs": [],
      "stateMutability": "nonpayable",
      "type": "function"
    },
    {
      "inputs": [],
      "name": "withdrawContractsProfits",
      "outputs": [],
      "stateMutability": "nonpayable",
      "type": "function"
    }
  ],
  "bytecode": "0x60a060405234801561001057600080fd5b5060016000553360601b60805260805160601c610ff161003b600039600061072f0152610ff16000f3fe60806040526004361061009c5760003560e01c80637929d1b5116100645780637929d1b51461012957806390effc83146101d95780639e65442c146101ee578063a80df8c014610203578063b8c3617c1461021e578063f9d138c31461023357600080fd5b806312e85585146100a15780631b9e19c6146100ca5780632528b676146100df57806338433c05146101015780636a31d99214610114575b600080fd5b3480156100ad57600080fd5b5066071afd498d00005b6040519081526020015b60405180910390f35b6100dd6100d8366004610e16565b610253565b005b3480156100eb57600080fd5b506100f46103e1565b6040516100c19190610eb2565b6100dd61010f366004610e51565b610510565b34801561012057600080fd5b506100dd610724565b34801561013557600080fd5b50610194610144366004610e38565b60026020819052600091825260409091208054600182015492820154600383015460048401546005909401546001600160a01b039384169594929360ff8316936101009093048116928116911687565b604080516001600160a01b0398891681526020810197909752860194909452911515606085015284166080840152831660a083015290911660c082015260e0016100c1565b3480156101e557600080fd5b506100f46107a0565b3480156101fa57600080fd5b506100f461093c565b34801561020f57600080fd5b506100b766071afd498d000081565b34801561022a57600080fd5b506100f4610ade565b34801561023f57600080fd5b506100dd61024e366004610e7d565b610c76565b66071afd498d0000341461028157604051630c3cfc1f60e01b81523460048201526024015b60405180910390fd5b61028f600180546001019055565b600061029a60015490565b6040805160e0810182526001600160a01b0380861682526020808301858152600084860181815260608601828152336080880181815260a0890185815260c08a019283528b8652600297889052998520985189549089166001600160a01b0319918216178a55955160018a015592519588019590955551600380880180549351881661010002610100600160a81b0319931515939093166001600160a81b03199094169390931791909117909155955160048601805491861691841691909117905591516005909401805494909316931692909217905581549293503492610383908490610f46565b909155505060408051600080825260208201819052818301523360608201819052915183916001600160a01b038616917f9dcc3573116b077cd633ea2be8f76d15617a8ab58fb28ba75f89e5d778db07ca9181900360800190a45050565b606060006103ee60015490565b905060008167ffffffffffffffff81111561040b5761040b610fa5565b60405190808252806020026020018201604052801561044457816020015b610431610dbe565b8152602001906001900390816104295790505b509050600060015b83811161050757600081815260026020818152604092839020835160e08101855281546001600160a01b0390811682526001830154938201939093529281015493830193909352600383015460ff8116151560608401526101009004811660808301526004830154811660a083015260059092015490911660c082015283518490849081106104dd576104dd610f8f565b60209081029190910101526104f3600183610f46565b9150806104ff81610f5e565b91505061044c565b50909392505050565b600260005414156105635760405162461bcd60e51b815260206004820152601f60248201527f5265656e7472616e637947756172643a207265656e7472616e742063616c6c006044820152606401610278565b6002600055816105895760405163681f561560e01b815260048101839052602401610278565b60008281526002602052604090206003015460ff1615156001146105c3576040516361e4bceb60e01b815260048101839052602401610278565b6000828152600260208190526040909120015434146105f7576040516308be23c360e31b8152346004820152602401610278565b60008281526002602052604090206003015461010090046001600160a01b03163314156106405760405163bb4cd47d60e01b815233600482015260248101839052604401610278565b6040516323b872dd60e01b8152306004820152336024820152604481018390526001600160a01b038216906323b872dd90606401600060405180830381600087803b15801561068e57600080fd5b505af11580156106a2573d6000803e3d6000fd5b5050506000838152600260205260408082206004015490516001600160a01b0390911692503480156108fc0292909190818181858888f193505050501580156106ef573d6000803e3d6000fd5b50506000908152600260208190526040822090810182905560030180546001600160a81b031916610100330217905560019055565b336001600160a01b037f0000000000000000000000000000000000000000000000000000000000000000161461076f57604051632ecc936560e21b8152336004820152602401610278565b600354604051339180156108fc02916000818181858888f1935050505015801561079d573d6000803e3d6000fd5b50565b606060006107ad60015490565b9050600060015b8281116107fa5760008181526002602052604090206003015460ff161515600114156107e8576107e5600183610f46565b91505b806107f281610f5e565b9150506107b4565b5060008167ffffffffffffffff81111561081657610816610fa5565b60405190808252806020026020018201604052801561084f57816020015b61083c610dbe565b8152602001906001900390816108345790505b509050600060015b8481116109325760008181526002602052604090206003015460ff1615156001141561092057600081815260026020818152604092839020835160e08101855281546001600160a01b0390811682526001830154938201939093529281015493830193909352600383015460ff8116151560608401526101009004811660808301526004830154811660a083015260059092015490911660c0820152835184908490811061090757610907610f8f565b602090810291909101015261091d600183610f46565b91505b8061092a81610f5e565b915050610857565b5090949350505050565b6060600061094960015490565b9050600060015b82811161099e5760008181526002602052604090206003015461010090046001600160a01b031633141561098c57610989600183610f46565b91505b8061099681610f5e565b915050610950565b5060008167ffffffffffffffff8111156109ba576109ba610fa5565b6040519080825280602002602001820160405280156109f357816020015b6109e0610dbe565b8152602001906001900390816109d85790505b509050600060015b8481116109325760008181526002602052604090206003015461010090046001600160a01b0316331415610acc57600081815260026020818152604092839020835160e08101855281546001600160a01b0390811682526001830154938201939093529281015493830193909352600383015460ff8116151560608401526101009004811660808301526004830154811660a083015260059092015490911660c08201528351849084908110610ab357610ab3610f8f565b6020908102919091010152610ac9600183610f46565b91505b80610ad681610f5e565b9150506109fb565b60606000610aeb60015490565b9050600060015b828111610b3b576000818152600260205260409020600501546001600160a01b0316331415610b2957610b26600183610f46565b91505b80610b3381610f5e565b915050610af2565b5060008167ffffffffffffffff811115610b5757610b57610fa5565b604051908082528060200260200182016040528015610b9057816020015b610b7d610dbe565b815260200190600190039081610b755790505b509050600060015b848111610932576000818152600260205260409020600501546001600160a01b0316331415610c6457600081815260026020818152604092839020835160e08101855281546001600160a01b0390811682526001830154938201939093529281015493830193909352600383015460ff8116151560608401526101009004811660808301526004830154811660a083015260059092015490911660c08201528351849084908110610c4b57610c4b610f8f565b6020908102919091010152610c61600183610f46565b91505b80610c6e81610f5e565b915050610b98565b60008211610ca0576040516355d86de760e01b815233600482015260248101839052604401610278565b60008381526002602052604090206003015460ff1615610cd6576040516346a770ad60e11b815260048101849052602401610278565b60008381526002602052604090206003015461010090046001600160a01b03163314610d1e5760405163814d137960e01b815233600482015260248101849052604401610278565b6040516323b872dd60e01b8152336004820152306024820152604481018490526001600160a01b038216906323b872dd90606401600060405180830381600087803b158015610d6c57600080fd5b505af1158015610d80573d6000803e3d6000fd5b505050600093845250506002602081905260409092209182015560038101805460ff1916600117905560040180546001600160a01b03191633179055565b6040805160e081018252600080825260208201819052918101829052606081018290526080810182905260a0810182905260c081019190915290565b80356001600160a01b0381168114610e1157600080fd5b919050565b600060208284031215610e2857600080fd5b610e3182610dfa565b9392505050565b600060208284031215610e4a57600080fd5b5035919050565b60008060408385031215610e6457600080fd5b82359150610e7460208401610dfa565b90509250929050565b600080600060608486031215610e9257600080fd5b8335925060208401359150610ea960408501610dfa565b90509250925092565b602080825282518282018190526000919060409081850190868401855b82811015610f3957815180516001600160a01b0390811686528782015188870152868201518787015260608083015115159087015260808083015182169087015260a08083015182169087015260c091820151169085015260e09093019290850190600101610ecf565b5091979650505050505050565b60008219821115610f5957610f59610f79565b500190565b6000600019821415610f7257610f72610f79565b5060010190565b634e487b7160e01b600052601160045260246000fd5b634e487b7160e01b600052603260045260246000fd5b634e487b7160e01b600052604160045260246000fdfea2646970667358221220fdfe30cc33949070dc7b1dd83b8640704eea7b4e2465d6e841e536d45271d26464736f6c63430008070033",
  "linkReferences": {},
  "deployedLinkReferences": {}
}